{
  "_format": "hh-sol-artifact-1",
  "contractName": "FarmRegistryUpgradeable",
  "sourceName": "contracts/FarmRegistryUpgradeable.sol",
  "abi": [
    {
      "anonymous": false,
      "inputs": [
        {
          "indexed": true,
          "internalType": "address",
          "name": "wallet",
          "type": "address"
        },
        {
          "indexed": false,
          "internalType": "string",
          "name": "metadataCID",
          "type": "string"
        }
      ],
      "name": "FarmerRegistered",
      "type": "event"
    },
    {
      "anonymous": false,
      "inputs": [
        {
          "indexed": true,
          "internalType": "address",
          "name": "wallet",
          "type": "address"
        },
        {
          "indexed": false,
          "internalType": "bool",
          "name": "verified",
          "type": "bool"
        }
      ],
      "name": "FarmerVerified",
      "type": "event"
    },
    {
      "anonymous": false,
      "inputs": [
        {
          "indexed": false,
          "internalType": "uint8",
          "name": "version",
          "type": "uint8"
        }
      ],
      "name": "Initialized",
      "type": "event"
    },
    {
      "anonymous": false,
      "inputs": [
        {
          "indexed": true,
          "internalType": "bytes32",
          "name": "role",
          "type": "bytes32"
        },
        {
          "indexed": true,
          "internalType": "bytes32",
          "name": "previousAdminRole",
          "type": "bytes32"
        },
        {
          "indexed": true,
          "internalType": "bytes32",
          "name": "newAdminRole",
          "type": "bytes32"
        }
      ],
      "name": "RoleAdminChanged",
      "type": "event"
    },
    {
      "anonymous": false,
      "inputs": [
        {
          "indexed": true,
          "internalType": "bytes32",
          "name": "role",
          "type": "bytes32"
        },
        {
          "indexed": true,
          "internalType": "address",
          "name": "account",
          "type": "address"
        },
        {
          "indexed": true,
          "internalType": "address",
          "name": "sender",
          "type": "address"
        }
      ],
      "name": "RoleGranted",
      "type": "event"
    },
    {
      "anonymous": false,
      "inputs": [
        {
          "indexed": true,
          "internalType": "bytes32",
          "name": "role",
          "type": "bytes32"
        },
        {
          "indexed": true,
          "internalType": "address",
          "name": "account",
          "type": "address"
        },
        {
          "indexed": true,
          "internalType": "address",
          "name": "sender",
          "type": "address"
        }
      ],
      "name": "RoleRevoked",
      "type": "event"
    },
    {
      "inputs": [],
      "name": "DEFAULT_ADMIN_ROLE",
      "outputs": [
        {
          "internalType": "bytes32",
          "name": "",
          "type": "bytes32"
        }
      ],
      "stateMutability": "view",
      "type": "function"
    },
    {
      "inputs": [
        {
          "internalType": "address",
          "name": "",
          "type": "address"
        }
      ],
      "name": "farmers",
      "outputs": [
        {
          "internalType": "address",
          "name": "wallet",
          "type": "address"
        },
        {
          "internalType": "string",
          "name": "name",
          "type": "string"
        },
        {
          "internalType": "string",
          "name": "location",
          "type": "string"
        },
        {
          "internalType": "bool",
          "name": "verified",
          "type": "bool"
        },
        {
          "internalType": "string",
          "name": "metadataCID",
          "type": "string"
        }
      ],
      "stateMutability": "view",
      "type": "function"
    },
    {
      "inputs": [
        {
          "internalType": "bytes32",
          "name": "role",
          "type": "bytes32"
        }
      ],
      "name": "getRoleAdmin",
      "outputs": [
        {
          "internalType": "bytes32",
          "name": "",
          "type": "bytes32"
        }
      ],
      "stateMutability": "view",
      "type": "function"
    },
    {
      "inputs": [
        {
          "internalType": "bytes32",
          "name": "role",
          "type": "bytes32"
        },
        {
          "internalType": "address",
          "name": "account",
          "type": "address"
        }
      ],
      "name": "grantRole",
      "outputs": [],
      "stateMutability": "nonpayable",
      "type": "function"
    },
    {
      "inputs": [
        {
          "internalType": "bytes32",
          "name": "role",
          "type": "bytes32"
        },
        {
          "internalType": "address",
          "name": "account",
          "type": "address"
        }
      ],
      "name": "hasRole",
      "outputs": [
        {
          "internalType": "bool",
          "name": "",
          "type": "bool"
        }
      ],
      "stateMutability": "view",
      "type": "function"
    },
    {
      "inputs": [
        {
          "internalType": "address",
          "name": "admin",
          "type": "address"
        }
      ],
      "name": "initialize",
      "outputs": [],
      "stateMutability": "nonpayable",
      "type": "function"
    },
    {
      "inputs": [
        {
          "internalType": "address",
          "name": "farmerAddr",
          "type": "address"
        }
      ],
      "name": "isVerified",
      "outputs": [
        {
          "internalType": "bool",
          "name": "",
          "type": "bool"
        }
      ],
      "stateMutability": "view",
      "type": "function"
    },
    {
      "inputs": [
        {
          "internalType": "string",
          "name": "metadataCID",
          "type": "string"
        }
      ],
      "name": "registerFarmer",
      "outputs": [],
      "stateMutability": "nonpayable",
      "type": "function"
    },
    {
      "inputs": [
        {
          "internalType": "bytes32",
          "name": "role",
          "type": "bytes32"
        },
        {
          "internalType": "address",
          "name": "account",
          "type": "address"
        }
      ],
      "name": "renounceRole",
      "outputs": [],
      "stateMutability": "nonpayable",
      "type": "function"
    },
    {
      "inputs": [
        {
          "internalType": "bytes32",
          "name": "role",
          "type": "bytes32"
        },
        {
          "internalType": "address",
          "name": "account",
          "type": "address"
        }
      ],
      "name": "revokeRole",
      "outputs": [],
      "stateMutability": "nonpayable",
      "type": "function"
    },
    {
      "inputs": [
        {
          "internalType": "bytes4",
          "name": "interfaceId",
          "type": "bytes4"
        }
      ],
      "name": "supportsInterface",
      "outputs": [
        {
          "internalType": "bool",
          "name": "",
          "type": "bool"
        }
      ],
      "stateMutability": "view",
      "type": "function"
    },
    {
      "inputs": [
        {
          "internalType": "string",
          "name": "metadataCID",
          "type": "string"
        }
      ],
      "name": "updateMetadata",
      "outputs": [],
      "stateMutability": "nonpayable",
      "type": "function"
    },
    {
      "inputs": [
        {
          "internalType": "address",
          "name": "farmerAddr",
          "type": "address"
        },
        {
          "internalType": "bool",
          "name": "verified",
          "type": "bool"
        }
      ],
      "name": "verifyFarmer",
      "outputs": [],
      "stateMutability": "nonpayable",
      "type": "function"
    }
  ],
  "bytecode": "0x608060405234801561001057600080fd5b5061104d806100206000396000f3fe608060405234801561001057600080fd5b50600436106100cf5760003560e01c80637ba7295e1161008c578063a217fddf11610066578063a217fddf146101c5578063b9209e33146101cd578063c4d66de8146101fc578063d547741f1461020f57600080fd5b80637ba7295e1461018c578063918b5be11461019f57806391d14854146101b257600080fd5b806301ffc9a7146100d4578063248a9ca3146100fc5780632f2ff15d1461012d57806336568abe14610142578063401b21681461015557806346f7a00c14610179575b600080fd5b6100e76100e2366004610b92565b610222565b60405190151581526020015b60405180910390f35b61011f61010a366004610bbc565b60009081526065602052604090206001015490565b6040519081526020016100f3565b61014061013b366004610bf1565b610259565b005b610140610150366004610bf1565b610283565b610168610163366004610c1d565b610306565b6040516100f3959493929190610c88565b610140610187366004610ce6565b6104e0565b61014061019a366004610d22565b6105a4565b6101406101ad366004610d22565b610621565b6100e76101c0366004610bf1565b610692565b61011f600081565b6100e76101db366004610c1d565b6001600160a01b031660009081526097602052604090206003015460ff1690565b61014061020a366004610c1d565b6106bd565b61014061021d366004610bf1565b6107ee565b60006001600160e01b03198216637965db0b60e01b148061025357506301ffc9a760e01b6001600160e01b03198316145b92915050565b60008281526065602052604090206001015461027481610813565b61027e8383610820565b505050565b6001600160a01b03811633146102f85760405162461bcd60e51b815260206004820152602f60248201527f416363657373436f6e74726f6c3a2063616e206f6e6c792072656e6f756e636560448201526e103937b632b9903337b91039b2b63360891b60648201526084015b60405180910390fd5b61030282826108a6565b5050565b609760205260009081526040902080546001820180546001600160a01b03909216929161033290610d94565b80601f016020809104026020016040519081016040528092919081815260200182805461035e90610d94565b80156103ab5780601f10610380576101008083540402835291602001916103ab565b820191906000526020600020905b81548152906001019060200180831161038e57829003601f168201915b5050505050908060020180546103c090610d94565b80601f01602080910402602001604051908101604052809291908181526020018280546103ec90610d94565b80156104395780601f1061040e57610100808354040283529160200191610439565b820191906000526020600020905b81548152906001019060200180831161041c57829003601f168201915b5050506003840154600485018054949560ff90921694919350915061045d90610d94565b80601f016020809104026020016040519081016040528092919081815260200182805461048990610d94565b80156104d65780601f106104ab576101008083540402835291602001916104d6565b820191906000526020600020905b8154815290600101906020018083116104b957829003601f168201915b5050505050905085565b60006104eb81610813565b6001600160a01b038084166000908152609760205260409020805490911661054d5760405162461bcd60e51b815260206004820152601560248201527411985c9b595c881b9bdd081c9959da5cdd195c9959605a1b60448201526064016102ef565b60038101805460ff19168415159081179091556040519081526001600160a01b038516907ffb63d576fe2851d4ea1f3f754e8505ead17fcba460d20678cdd2947bf073e5f19060200160405180910390a250505050565b33600081815260976020526040902080546001600160a01b0319169091178155600481016105d3838583610e32565b5060038101805460ff1916905560405133907f42558426a946ab6e527d7f548e7bd3e34c2a7ddde555007464cdfbb5f58665f8906106149086908690610ef3565b60405180910390a2505050565b336000818152609760205260409020805490916001600160a01b039091161461067d5760405162461bcd60e51b815260206004820152600e60248201526d139bdd081c9959da5cdd195c995960921b60448201526064016102ef565b6004810161068c838583610e32565b50505050565b60009182526065602090815260408084206001600160a01b0393909316845291905290205460ff1690565b600054610100900460ff16158080156106dd5750600054600160ff909116105b806106f75750303b1580156106f7575060005460ff166001145b61075a5760405162461bcd60e51b815260206004820152602e60248201527f496e697469616c697a61626c653a20636f6e747261637420697320616c72656160448201526d191e481a5b9a5d1a585b1a5e995960921b60648201526084016102ef565b6000805460ff19166001179055801561077d576000805461ff0019166101001790555b61078561090d565b6107a560006001600160a01b0384161561079f578361097a565b3361097a565b8015610302576000805461ff0019169055604051600181527f7f26b83ff96e1f2b6a682f133852f6798a09c465da95921460cefb38474024989060200160405180910390a15050565b60008281526065602052604090206001015461080981610813565b61027e83836108a6565b61081d8133610984565b50565b61082a8282610692565b6103025760008281526065602090815260408083206001600160a01b03851684529091529020805460ff191660011790556108623390565b6001600160a01b0316816001600160a01b0316837f2f8788117e7eff1d82e926ec794901d17c78024a50270940304540a733656f0d60405160405180910390a45050565b6108b08282610692565b156103025760008281526065602090815260408083206001600160a01b0385168085529252808320805460ff1916905551339285917ff6391f5c32d9c69d2a47ea670b442974b53935d1edc7fd64eb21e047a839171b9190a45050565b600054610100900460ff166109785760405162461bcd60e51b815260206004820152602b60248201527f496e697469616c697a61626c653a20636f6e7472616374206973206e6f74206960448201526a6e697469616c697a696e6760a81b60648201526084016102ef565b565b6103028282610820565b61098e8282610692565b6103025761099b816109dd565b6109a68360206109ef565b6040516020016109b7929190610f22565b60408051601f198184030181529082905262461bcd60e51b82526102ef91600401610f97565b60606102536001600160a01b03831660145b606060006109fe836002610fc0565b610a09906002610fd7565b67ffffffffffffffff811115610a2157610a21610dce565b6040519080825280601f01601f191660200182016040528015610a4b576020820181803683370190505b509050600360fc1b81600081518110610a6657610a66610fea565b60200101906001600160f81b031916908160001a905350600f60fb1b81600181518110610a9557610a95610fea565b60200101906001600160f81b031916908160001a9053506000610ab9846002610fc0565b610ac4906001610fd7565b90505b6001811115610b3c576f181899199a1a9b1b9c1cb0b131b232b360811b85600f1660108110610af857610af8610fea565b1a60f81b828281518110610b0e57610b0e610fea565b60200101906001600160f81b031916908160001a90535060049490941c93610b3581611000565b9050610ac7565b508315610b8b5760405162461bcd60e51b815260206004820181905260248201527f537472696e67733a20686578206c656e67746820696e73756666696369656e7460448201526064016102ef565b9392505050565b600060208284031215610ba457600080fd5b81356001600160e01b031981168114610b8b57600080fd5b600060208284031215610bce57600080fd5b5035919050565b80356001600160a01b0381168114610bec57600080fd5b919050565b60008060408385031215610c0457600080fd5b82359150610c1460208401610bd5565b90509250929050565b600060208284031215610c2f57600080fd5b610b8b82610bd5565b60005b83811015610c53578181015183820152602001610c3b565b50506000910152565b60008151808452610c74816020860160208601610c38565b601f01601f19169290920160200192915050565b6001600160a01b038616815260a060208201819052600090610cac90830187610c5c565b8281036040840152610cbe8187610c5c565b905084151560608401528281036080840152610cda8185610c5c565b98975050505050505050565b60008060408385031215610cf957600080fd5b610d0283610bd5565b915060208301358015158114610d1757600080fd5b809150509250929050565b60008060208385031215610d3557600080fd5b823567ffffffffffffffff80821115610d4d57600080fd5b818501915085601f830112610d6157600080fd5b813581811115610d7057600080fd5b866020828501011115610d8257600080fd5b60209290920196919550909350505050565b600181811c90821680610da857607f821691505b602082108103610dc857634e487b7160e01b600052602260045260246000fd5b50919050565b634e487b7160e01b600052604160045260246000fd5b601f82111561027e57600081815260208120601f850160051c81016020861015610e0b5750805b601f850160051c820191505b81811015610e2a57828155600101610e17565b505050505050565b67ffffffffffffffff831115610e4a57610e4a610dce565b610e5e83610e588354610d94565b83610de4565b6000601f841160018114610e925760008515610e7a5750838201355b600019600387901b1c1916600186901b178355610eec565b600083815260209020601f19861690835b82811015610ec35786850135825560209485019460019092019101610ea3565b5086821015610ee05760001960f88860031b161c19848701351681555b505060018560011b0183555b5050505050565b60208152816020820152818360408301376000818301604090810191909152601f909201601f19160101919050565b7f416363657373436f6e74726f6c3a206163636f756e7420000000000000000000815260008351610f5a816017850160208801610c38565b7001034b99036b4b9b9b4b733903937b6329607d1b6017918401918201528351610f8b816028840160208801610c38565b01602801949350505050565b602081526000610b8b6020830184610c5c565b634e487b7160e01b600052601160045260246000fd5b808202811582820484141761025357610253610faa565b8082018082111561025357610253610faa565b634e487b7160e01b600052603260045260246000fd5b60008161100f5761100f610faa565b50600019019056fea2646970667358221220c1e124b001e12cf390c4019163cd85de50a09dd599b6b38889dc3f0662e035ef64736f6c63430008130033",
  "linkReferences": {},
  "deployedLinkReferences": {}
}