{
  "_format": "hh-sol-artifact-1",
  "contractName": "MerkleAnchoring",
  "sourceName": "contracts/MerkleAnchoring.sol",
  "abi": [
    {
      "inputs": [],
      "stateMutability": "nonpayable",
      "type": "constructor"
    },
    {
      "anonymous": false,
      "inputs": [
        {
          "indexed": true,
          "internalType": "uint256",
          "name": "version",
          "type": "uint256"
        },
        {
          "indexed": false,
          "internalType": "bytes32",
          "name": "root",
          "type": "bytes32"
        },
        {
          "indexed": false,
          "internalType": "uint256",
          "name": "timestamp",
          "type": "uint256"
        }
      ],
      "name": "MerkleRootPublished",
      "type": "event"
    },
    {
      "inputs": [],
      "name": "latestVersion",
      "outputs": [
        {
          "internalType": "uint256",
          "name": "",
          "type": "uint256"
        }
      ],
      "stateMutability": "view",
      "type": "function"
    },
    {
      "inputs": [
        {
          "internalType": "uint256",
          "name": "",
          "type": "uint256"
        }
      ],
      "name": "merkleRoots",
      "outputs": [
        {
          "internalType": "bytes32",
          "name": "",
          "type": "bytes32"
        }
      ],
      "stateMutability": "view",
      "type": "function"
    },
    {
      "inputs": [],
      "name": "owner",
      "outputs": [
        {
          "internalType": "address",
          "name": "",
          "type": "address"
        }
      ],
      "stateMutability": "view",
      "type": "function"
    },
    {
      "inputs": [
        {
          "internalType": "bytes32",
          "name": "root",
          "type": "bytes32"
        }
      ],
      "name": "publishRoot",
      "outputs": [
        {
          "internalType": "uint256",
          "name": "",
          "type": "uint256"
        }
      ],
      "stateMutability": "nonpayable",
      "type": "function"
    },
    {
      "inputs": [
        {
          "internalType": "bytes32",
          "name": "leaf",
          "type": "bytes32"
        },
        {
          "internalType": "bytes32[]",
          "name": "proof",
          "type": "bytes32[]"
        },
        {
          "internalType": "uint256",
          "name": "version",
          "type": "uint256"
        }
      ],
      "name": "verify",
      "outputs": [
        {
          "internalType": "bool",
          "name": "",
          "type": "bool"
        }
      ],
      "stateMutability": "view",
      "type": "function"
    }
  ],
  "bytecode": "0x608060405234801561001057600080fd5b50600080546001600160a01b03191633179055610413806100326000396000f3fe608060405234801561001057600080fd5b50600436106100575760003560e01c8063614cac9e1461005c57806371c5ecb1146100845780638da5cb5b146100b2578063c07f47d4146100dd578063c56786d8146100e6575b600080fd5b61006f61006a366004610294565b6100f9565b60405190151581526020015b60405180910390f35b6100a4610092366004610366565b60016020526000908152604090205481565b60405190815260200161007b565b6000546100c5906001600160a01b031681565b6040516001600160a01b03909116815260200161007b565b6100a460025481565b6100a46100f4366004610366565b6101b7565b600083815b845181101561019d57600085828151811061011b5761011b61037f565b6020026020010151905080831161015d57604080516020810185905290810182905260600160405160208183030381529060405280519060200120925061018a565b60408051602081018390529081018490526060016040516020818303038152906040528051906020012092505b5080610195816103ab565b9150506100fe565b506000838152600160205260409020541490509392505050565b600080546001600160a01b031633146102035760405162461bcd60e51b815260206004820152600a60248201526927b7363c9037bbb732b960b11b604482015260640160405180910390fd5b60016002600082825461021691906103c4565b90915550506002805460009081526001602052604090819020849055905490517f7e3a4a26a922013291a3cea94019b1474aebb2cdd583c4d4771f45e570cfa7729061026e9085904290918252602082015260400190565b60405180910390a2505060025490565b634e487b7160e01b600052604160045260246000fd5b6000806000606084860312156102a957600080fd5b8335925060208085013567ffffffffffffffff808211156102c957600080fd5b818701915087601f8301126102dd57600080fd5b8135818111156102ef576102ef61027e565b8060051b604051601f19603f830116810181811085821117156103145761031461027e565b60405291825284820192508381018501918a83111561033257600080fd5b938501935b8285101561035057843584529385019392850192610337565b979a979950505050604095909501359450505050565b60006020828403121561037857600080fd5b5035919050565b634e487b7160e01b600052603260045260246000fd5b634e487b7160e01b600052601160045260246000fd5b6000600182016103bd576103bd610395565b5060010190565b808201808211156103d7576103d7610395565b9291505056fea2646970667358221220659ab89eb1181f651fab7228957ec5d1008e8090089e1d8f57a4ff922d7e2a1864736f6c63430008130033",
  "linkReferences": {},
  "deployedLinkReferences": {}
}